{
  "contractName": "AuthorRole",
  "abi": [
    {
      "inputs": [],
      "payable": false,
      "stateMutability": "nonpayable",
      "type": "constructor"
    },
    {
      "anonymous": false,
      "inputs": [
        {
          "indexed": true,
          "internalType": "address",
          "name": "account",
          "type": "address"
        }
      ],
      "name": "AuthorAdded",
      "type": "event"
    },
    {
      "anonymous": false,
      "inputs": [
        {
          "indexed": true,
          "internalType": "address",
          "name": "account",
          "type": "address"
        }
      ],
      "name": "AuthorRemoved",
      "type": "event"
    },
    {
      "constant": true,
      "inputs": [
        {
          "internalType": "address",
          "name": "account",
          "type": "address"
        }
      ],
      "name": "isAuthor",
      "outputs": [
        {
          "internalType": "bool",
          "name": "",
          "type": "bool"
        }
      ],
      "payable": false,
      "stateMutability": "view",
      "type": "function"
    },
    {
      "constant": false,
      "inputs": [
        {
          "internalType": "address",
          "name": "account",
          "type": "address"
        }
      ],
      "name": "addAuthor",
      "outputs": [],
      "payable": false,
      "stateMutability": "nonpayable",
      "type": "function"
    },
    {
      "constant": false,
      "inputs": [],
      "name": "renounceAuthor",
      "outputs": [],
      "payable": false,
      "stateMutability": "nonpayable",
      "type": "function"
    }
  ],
  "bytecode": "0x608060405234801561001057600080fd5b506100203361002560201b60201c565b6101c7565b61003d81600061008360201b61027c1790919060201c565b8073ffffffffffffffffffffffffffffffffffffffff167fa54c216efea01b095e2d9a04ed954effb291e3b605b3e188eef0cf5907b86d6060405160405180910390a250565b600073ffffffffffffffffffffffffffffffffffffffff168173ffffffffffffffffffffffffffffffffffffffff1614156100bd57600080fd5b6100cd828261013560201b60201c565b156100d757600080fd5b60018260000160008373ffffffffffffffffffffffffffffffffffffffff1673ffffffffffffffffffffffffffffffffffffffff16815260200190815260200160002060006101000a81548160ff0219169083151502179055505050565b60008073ffffffffffffffffffffffffffffffffffffffff168273ffffffffffffffffffffffffffffffffffffffff16141561017057600080fd5b8260000160008373ffffffffffffffffffffffffffffffffffffffff1673ffffffffffffffffffffffffffffffffffffffff16815260200190815260200160002060009054906101000a900460ff16905092915050565b610408806101d66000396000f3fe608060405234801561001057600080fd5b50600436106100415760003560e01c80632ddbc97e1461004657806386efab0b1461008a578063d4b1253014610094575b600080fd5b6100886004803603602081101561005c57600080fd5b81019080803573ffffffffffffffffffffffffffffffffffffffff1690602001909291905050506100f0565b005b61009261010e565b005b6100d6600480360360208110156100aa57600080fd5b81019080803573ffffffffffffffffffffffffffffffffffffffff169060200190929190505050610119565b604051808215151515815260200191505060405180910390f35b6100f933610119565b61010257600080fd5b61010b81610136565b50565b61011733610190565b565b600061012f8260006101ea90919063ffffffff16565b9050919050565b61014a81600061027c90919063ffffffff16565b8073ffffffffffffffffffffffffffffffffffffffff167fa54c216efea01b095e2d9a04ed954effb291e3b605b3e188eef0cf5907b86d6060405160405180910390a250565b6101a481600061032890919063ffffffff16565b8073ffffffffffffffffffffffffffffffffffffffff167fbc182e43b738ad813e1ece3ed212d35a05cddd04477b4a53b5dd5fc95857f3d760405160405180910390a250565b60008073ffffffffffffffffffffffffffffffffffffffff168273ffffffffffffffffffffffffffffffffffffffff16141561022557600080fd5b8260000160008373ffffffffffffffffffffffffffffffffffffffff1673ffffffffffffffffffffffffffffffffffffffff16815260200190815260200160002060009054906101000a900460ff16905092915050565b600073ffffffffffffffffffffffffffffffffffffffff168173ffffffffffffffffffffffffffffffffffffffff1614156102b657600080fd5b6102c082826101ea565b156102ca57600080fd5b60018260000160008373ffffffffffffffffffffffffffffffffffffffff1673ffffffffffffffffffffffffffffffffffffffff16815260200190815260200160002060006101000a81548160ff0219169083151502179055505050565b600073ffffffffffffffffffffffffffffffffffffffff168173ffffffffffffffffffffffffffffffffffffffff16141561036257600080fd5b61036c82826101ea565b61037557600080fd5b60008260000160008373ffffffffffffffffffffffffffffffffffffffff1673ffffffffffffffffffffffffffffffffffffffff16815260200190815260200160002060006101000a81548160ff021916908315150217905550505056fea265627a7a72315820ea753090c8d6c4b9b8b86875e1526066cb8d457795e0d0ec762acefb36737cba64736f6c63430005100032",
  "source": "pragma solidity >=0.4.24;\r\n\r\n// Import the library 'Roles'\r\nimport \"./Roles.sol\";\r\n\r\n// Define a contract 'AuthorRole' to manage this role - add, remove, check\r\ncontract AuthorRole {\r\n  using Roles for Roles.Role;\r\n\r\n  // Define 2 events, one for Adding, and other for Removing\r\n  event AuthorAdded(address indexed account);\r\n  event AuthorRemoved(address indexed account);\r\n\r\n  // Define a struct 'authors' by inheriting from 'Roles' library, struct Role\r\n  Roles.Role private authors;\r\n\r\n  // In the constructor make the address that deploys this contract the 1st author\r\n  constructor() public {\r\n    _addAuthor(msg.sender);\r\n  }\r\n\r\n  // Define a modifier that checks to see if msg.sender has the appropriate role\r\n  modifier onlyAuthor() {\r\n    require(isAuthor(msg.sender));\r\n    _;\r\n  }\r\n\r\n  // Define a function 'isAuthor' to check this role\r\n  function isAuthor(address account) public view returns (bool) {\r\n    return authors.has(account);\r\n  }\r\n\r\n  // Define a function 'addAuthor' that adds this role\r\n  function addAuthor(address account) public onlyAuthor {\r\n    _addAuthor(account);\r\n  }\r\n\r\n  // Define a function 'renounceAuthor' to renounce this role\r\n  function renounceAuthor() public {\r\n    _removeAuthor(msg.sender);\r\n  }\r\n\r\n  // Define an internal function '_addAuthor' to add this role, called by 'addAuthor'\r\n  function _addAuthor(address account) internal {\r\n    authors.add(account);\r\n    emit AuthorAdded(account);\r\n  }\r\n\r\n  // Define an internal function '_removeAuthor' to remove this role, called by 'removeAuthor'\r\n  function _removeAuthor(address account) internal {\r\n    authors.remove(account);\r\n    emit AuthorRemoved(account);\r\n  }\r\n}\r\n",
  "sourcePath": "C:\\Users\\cathe\\Downloads\\Web Dev\\udacity_Project6_BookSupplyChain\\project-6\\contracts\\bookaccesscontrol\\AuthorRole.sol",
  "compiler": {
    "name": "solc",
    "version": "0.5.16+commit.9c3226ce.Emscripten.clang"
  },
  "schemaVersion": "3.0.23",
  "updatedAt": "2020-04-16T23:14:30.655Z",
  "networkType": "ethereum",
  "devdoc": {
    "methods": {}
  },
  "userdoc": {
    "methods": {}
  }
}