{
  "contractName": "DesignerRole",
  "abi": [
    {
      "inputs": [],
      "payable": false,
      "stateMutability": "nonpayable",
      "type": "constructor"
    },
    {
      "anonymous": false,
      "inputs": [
        {
          "indexed": true,
          "internalType": "address",
          "name": "account",
          "type": "address"
        }
      ],
      "name": "DesignerAdded",
      "type": "event"
    },
    {
      "anonymous": false,
      "inputs": [
        {
          "indexed": true,
          "internalType": "address",
          "name": "account",
          "type": "address"
        }
      ],
      "name": "DesignerRemoved",
      "type": "event"
    },
    {
      "constant": true,
      "inputs": [
        {
          "internalType": "address",
          "name": "account",
          "type": "address"
        }
      ],
      "name": "isDesigner",
      "outputs": [
        {
          "internalType": "bool",
          "name": "",
          "type": "bool"
        }
      ],
      "payable": false,
      "stateMutability": "view",
      "type": "function"
    },
    {
      "constant": false,
      "inputs": [
        {
          "internalType": "address",
          "name": "account",
          "type": "address"
        }
      ],
      "name": "addDesigner",
      "outputs": [],
      "payable": false,
      "stateMutability": "nonpayable",
      "type": "function"
    },
    {
      "constant": false,
      "inputs": [],
      "name": "renounceDesigner",
      "outputs": [],
      "payable": false,
      "stateMutability": "nonpayable",
      "type": "function"
    }
  ],
  "bytecode": "0x608060405234801561001057600080fd5b506100203361002560201b60201c565b6101c7565b61003d81600061008360201b61027c1790919060201c565b8073ffffffffffffffffffffffffffffffffffffffff167f97069a05372df648feb174cc125711b2c72a81450a1ab2769c8faf49917d7fd260405160405180910390a250565b600073ffffffffffffffffffffffffffffffffffffffff168173ffffffffffffffffffffffffffffffffffffffff1614156100bd57600080fd5b6100cd828261013560201b60201c565b156100d757600080fd5b60018260000160008373ffffffffffffffffffffffffffffffffffffffff1673ffffffffffffffffffffffffffffffffffffffff16815260200190815260200160002060006101000a81548160ff0219169083151502179055505050565b60008073ffffffffffffffffffffffffffffffffffffffff168273ffffffffffffffffffffffffffffffffffffffff16141561017057600080fd5b8260000160008373ffffffffffffffffffffffffffffffffffffffff1673ffffffffffffffffffffffffffffffffffffffff16815260200190815260200160002060009054906101000a900460ff16905092915050565b610408806101d66000396000f3fe608060405234801561001057600080fd5b50600436106100415760003560e01c80631b5ea45a146100465780631fbe98b11461008a578063a4f03e2314610094575b600080fd5b6100886004803603602081101561005c57600080fd5b81019080803573ffffffffffffffffffffffffffffffffffffffff1690602001909291905050506100f0565b005b61009261010e565b005b6100d6600480360360208110156100aa57600080fd5b81019080803573ffffffffffffffffffffffffffffffffffffffff169060200190929190505050610119565b604051808215151515815260200191505060405180910390f35b6100f933610119565b61010257600080fd5b61010b81610136565b50565b61011733610190565b565b600061012f8260006101ea90919063ffffffff16565b9050919050565b61014a81600061027c90919063ffffffff16565b8073ffffffffffffffffffffffffffffffffffffffff167f97069a05372df648feb174cc125711b2c72a81450a1ab2769c8faf49917d7fd260405160405180910390a250565b6101a481600061032890919063ffffffff16565b8073ffffffffffffffffffffffffffffffffffffffff167fe16181bbb8b138f88a23696ae25f2c63713913e3fc6922b234a08639bf53cbea60405160405180910390a250565b60008073ffffffffffffffffffffffffffffffffffffffff168273ffffffffffffffffffffffffffffffffffffffff16141561022557600080fd5b8260000160008373ffffffffffffffffffffffffffffffffffffffff1673ffffffffffffffffffffffffffffffffffffffff16815260200190815260200160002060009054906101000a900460ff16905092915050565b600073ffffffffffffffffffffffffffffffffffffffff168173ffffffffffffffffffffffffffffffffffffffff1614156102b657600080fd5b6102c082826101ea565b156102ca57600080fd5b60018260000160008373ffffffffffffffffffffffffffffffffffffffff1673ffffffffffffffffffffffffffffffffffffffff16815260200190815260200160002060006101000a81548160ff0219169083151502179055505050565b600073ffffffffffffffffffffffffffffffffffffffff168173ffffffffffffffffffffffffffffffffffffffff16141561036257600080fd5b61036c82826101ea565b61037557600080fd5b60008260000160008373ffffffffffffffffffffffffffffffffffffffff1673ffffffffffffffffffffffffffffffffffffffff16815260200190815260200160002060006101000a81548160ff021916908315150217905550505056fea265627a7a723158209f9c3396acb594f976c5c2ce3906c931117d4e94f5e8c6d04fbaa652ad46e9b364736f6c63430005100032",
  "source": "pragma solidity >=0.4.24;\r\n\r\n// Import the library 'Roles'\r\nimport \"./Roles.sol\";\r\n\r\n// Define a contract 'DesignerRole' to manage this role - add, remove, check\r\ncontract DesignerRole {\r\n  using Roles for Roles.Role;\r\n\r\n  // Define 2 events, one for Adding, and other for Removing\r\n  event DesignerAdded(address indexed account);\r\n  event DesignerRemoved(address indexed account);\r\n\r\n  // Define a struct 'designers' by inheriting from 'Roles' library, struct Role\r\n  Roles.Role private designers;\r\n\r\n  // In the constructor make the address that deploys this contract the 1st designer\r\n  constructor() public {\r\n    _addDesigner(msg.sender);\r\n  }\r\n\r\n  // Define a modifier that checks to see if msg.sender has the appropriate role\r\n  modifier onlyDesigner() {\r\n    require(isDesigner(msg.sender));\r\n    _;\r\n  }\r\n\r\n  // Define a function 'isDesigner' to check this role\r\n  function isDesigner(address account) public view returns (bool) {\r\n    return designers.has(account);\r\n  }\r\n\r\n  // Define a function 'addDesigner' that adds this role\r\n  function addDesigner(address account) public onlyDesigner {\r\n    _addDesigner(account);\r\n  }\r\n\r\n  // Define a function 'renounceDesigner' to renounce this role\r\n  function renounceDesigner() public {\r\n    _removeDesigner(msg.sender);\r\n  }\r\n\r\n  // Define an internal function '_addDesigner' to add this role, called by 'addDesigner'\r\n  function _addDesigner(address account) internal {\r\n    designers.add(account);\r\n    emit DesignerAdded(account);\r\n  }\r\n\r\n  // Define an internal function '_removeDesigner' to remove this role, called by 'removeDesigner'\r\n  function _removeDesigner(address account) internal {\r\n    designers.remove(account);\r\n    emit DesignerRemoved(account);\r\n  }\r\n}\r\n",
  "sourcePath": "C:\\Users\\cathe\\Downloads\\Web Dev\\udacity_Project6_BookSupplyChain\\project-6\\contracts\\bookaccesscontrol\\DesignerRole.sol",
  "compiler": {
    "name": "solc",
    "version": "0.5.16+commit.9c3226ce.Emscripten.clang"
  },
  "schemaVersion": "3.0.23",
  "updatedAt": "2020-04-16T23:14:30.740Z",
  "networkType": "ethereum",
  "devdoc": {
    "methods": {}
  },
  "userdoc": {
    "methods": {}
  }
}