{
  "contractName": "SupplyChain",
  "abi": [
    {
      "inputs": [],
      "payable": true,
      "stateMutability": "payable",
      "type": "constructor"
    },
    {
      "anonymous": false,
      "inputs": [
        {
          "indexed": false,
          "internalType": "uint256",
          "name": "upc",
          "type": "uint256"
        }
      ],
      "name": "Advertised",
      "type": "event"
    },
    {
      "anonymous": false,
      "inputs": [
        {
          "indexed": true,
          "internalType": "address",
          "name": "account",
          "type": "address"
        }
      ],
      "name": "AuthorAdded",
      "type": "event"
    },
    {
      "anonymous": false,
      "inputs": [
        {
          "indexed": true,
          "internalType": "address",
          "name": "account",
          "type": "address"
        }
      ],
      "name": "AuthorRemoved",
      "type": "event"
    },
    {
      "anonymous": false,
      "inputs": [
        {
          "indexed": true,
          "internalType": "address",
          "name": "account",
          "type": "address"
        }
      ],
      "name": "ConsumerAdded",
      "type": "event"
    },
    {
      "anonymous": false,
      "inputs": [
        {
          "indexed": true,
          "internalType": "address",
          "name": "account",
          "type": "address"
        }
      ],
      "name": "ConsumerRemoved",
      "type": "event"
    },
    {
      "anonymous": false,
      "inputs": [
        {
          "indexed": false,
          "internalType": "uint256",
          "name": "upc",
          "type": "uint256"
        }
      ],
      "name": "Designed",
      "type": "event"
    },
    {
      "anonymous": false,
      "inputs": [
        {
          "indexed": true,
          "internalType": "address",
          "name": "account",
          "type": "address"
        }
      ],
      "name": "DesignerAdded",
      "type": "event"
    },
    {
      "anonymous": false,
      "inputs": [
        {
          "indexed": true,
          "internalType": "address",
          "name": "account",
          "type": "address"
        }
      ],
      "name": "DesignerRemoved",
      "type": "event"
    },
    {
      "anonymous": false,
      "inputs": [
        {
          "indexed": false,
          "internalType": "uint256",
          "name": "upc",
          "type": "uint256"
        }
      ],
      "name": "Edited",
      "type": "event"
    },
    {
      "anonymous": false,
      "inputs": [
        {
          "indexed": true,
          "internalType": "address",
          "name": "account",
          "type": "address"
        }
      ],
      "name": "EditorAdded",
      "type": "event"
    },
    {
      "anonymous": false,
      "inputs": [
        {
          "indexed": true,
          "internalType": "address",
          "name": "account",
          "type": "address"
        }
      ],
      "name": "EditorRemoved",
      "type": "event"
    },
    {
      "anonymous": false,
      "inputs": [
        {
          "indexed": false,
          "internalType": "uint256",
          "name": "upc",
          "type": "uint256"
        }
      ],
      "name": "FinalDraft",
      "type": "event"
    },
    {
      "anonymous": false,
      "inputs": [
        {
          "indexed": false,
          "internalType": "uint256",
          "name": "upc",
          "type": "uint256"
        }
      ],
      "name": "Published",
      "type": "event"
    },
    {
      "anonymous": false,
      "inputs": [
        {
          "indexed": false,
          "internalType": "uint256",
          "name": "upc",
          "type": "uint256"
        }
      ],
      "name": "Purchased",
      "type": "event"
    },
    {
      "anonymous": false,
      "inputs": [
        {
          "indexed": false,
          "internalType": "uint256",
          "name": "upc",
          "type": "uint256"
        }
      ],
      "name": "SentForDesign",
      "type": "event"
    },
    {
      "anonymous": false,
      "inputs": [
        {
          "indexed": false,
          "internalType": "uint256",
          "name": "upc",
          "type": "uint256"
        }
      ],
      "name": "SentForEditing",
      "type": "event"
    },
    {
      "anonymous": false,
      "inputs": [
        {
          "indexed": true,
          "internalType": "address",
          "name": "oldOwner",
          "type": "address"
        },
        {
          "indexed": true,
          "internalType": "address",
          "name": "newOwner",
          "type": "address"
        }
      ],
      "name": "TransferOwnership",
      "type": "event"
    },
    {
      "anonymous": false,
      "inputs": [
        {
          "indexed": false,
          "internalType": "uint256",
          "name": "upc",
          "type": "uint256"
        }
      ],
      "name": "Written",
      "type": "event"
    },
    {
      "constant": false,
      "inputs": [
        {
          "internalType": "address",
          "name": "account",
          "type": "address"
        }
      ],
      "name": "addAuthor",
      "outputs": [],
      "payable": false,
      "stateMutability": "nonpayable",
      "type": "function"
    },
    {
      "constant": false,
      "inputs": [
        {
          "internalType": "address",
          "name": "account",
          "type": "address"
        }
      ],
      "name": "addConsumer",
      "outputs": [],
      "payable": false,
      "stateMutability": "nonpayable",
      "type": "function"
    },
    {
      "constant": false,
      "inputs": [
        {
          "internalType": "address",
          "name": "account",
          "type": "address"
        }
      ],
      "name": "addDesigner",
      "outputs": [],
      "payable": false,
      "stateMutability": "nonpayable",
      "type": "function"
    },
    {
      "constant": false,
      "inputs": [
        {
          "internalType": "address",
          "name": "account",
          "type": "address"
        }
      ],
      "name": "addEditor",
      "outputs": [],
      "payable": false,
      "stateMutability": "nonpayable",
      "type": "function"
    },
    {
      "constant": true,
      "inputs": [
        {
          "internalType": "address",
          "name": "account",
          "type": "address"
        }
      ],
      "name": "isAuthor",
      "outputs": [
        {
          "internalType": "bool",
          "name": "",
          "type": "bool"
        }
      ],
      "payable": false,
      "stateMutability": "view",
      "type": "function"
    },
    {
      "constant": true,
      "inputs": [
        {
          "internalType": "address",
          "name": "account",
          "type": "address"
        }
      ],
      "name": "isConsumer",
      "outputs": [
        {
          "internalType": "bool",
          "name": "",
          "type": "bool"
        }
      ],
      "payable": false,
      "stateMutability": "view",
      "type": "function"
    },
    {
      "constant": true,
      "inputs": [
        {
          "internalType": "address",
          "name": "account",
          "type": "address"
        }
      ],
      "name": "isDesigner",
      "outputs": [
        {
          "internalType": "bool",
          "name": "",
          "type": "bool"
        }
      ],
      "payable": false,
      "stateMutability": "view",
      "type": "function"
    },
    {
      "constant": true,
      "inputs": [
        {
          "internalType": "address",
          "name": "account",
          "type": "address"
        }
      ],
      "name": "isEditor",
      "outputs": [
        {
          "internalType": "bool",
          "name": "",
          "type": "bool"
        }
      ],
      "payable": false,
      "stateMutability": "view",
      "type": "function"
    },
    {
      "constant": true,
      "inputs": [],
      "name": "isOwner",
      "outputs": [
        {
          "internalType": "bool",
          "name": "",
          "type": "bool"
        }
      ],
      "payable": false,
      "stateMutability": "view",
      "type": "function"
    },
    {
      "constant": false,
      "inputs": [],
      "name": "renounceAuthor",
      "outputs": [],
      "payable": false,
      "stateMutability": "nonpayable",
      "type": "function"
    },
    {
      "constant": false,
      "inputs": [],
      "name": "renounceConsumer",
      "outputs": [],
      "payable": false,
      "stateMutability": "nonpayable",
      "type": "function"
    },
    {
      "constant": false,
      "inputs": [],
      "name": "renounceDesigner",
      "outputs": [],
      "payable": false,
      "stateMutability": "nonpayable",
      "type": "function"
    },
    {
      "constant": false,
      "inputs": [],
      "name": "renounceEditor",
      "outputs": [],
      "payable": false,
      "stateMutability": "nonpayable",
      "type": "function"
    },
    {
      "constant": false,
      "inputs": [],
      "name": "renounceOwnership",
      "outputs": [],
      "payable": false,
      "stateMutability": "nonpayable",
      "type": "function"
    },
    {
      "constant": true,
      "inputs": [],
      "name": "theOwner",
      "outputs": [
        {
          "internalType": "address",
          "name": "",
          "type": "address"
        }
      ],
      "payable": false,
      "stateMutability": "view",
      "type": "function"
    },
    {
      "constant": false,
      "inputs": [
        {
          "internalType": "address",
          "name": "newOwner",
          "type": "address"
        }
      ],
      "name": "transferOwnership",
      "outputs": [],
      "payable": false,
      "stateMutability": "nonpayable",
      "type": "function"
    },
    {
      "constant": false,
      "inputs": [],
      "name": "kill",
      "outputs": [],
      "payable": false,
      "stateMutability": "nonpayable",
      "type": "function"
    },
    {
      "constant": false,
      "inputs": [
        {
          "internalType": "uint256",
          "name": "_upc",
          "type": "uint256"
        },
        {
          "internalType": "address payable",
          "name": "_originAuthorID",
          "type": "address"
        },
        {
          "internalType": "string",
          "name": "_originAuthorName",
          "type": "string"
        },
        {
          "internalType": "string",
          "name": "_originAuthorInformation",
          "type": "string"
        },
        {
          "internalType": "string",
          "name": "_productNotes",
          "type": "string"
        }
      ],
      "name": "writeBook",
      "outputs": [],
      "payable": false,
      "stateMutability": "nonpayable",
      "type": "function"
    },
    {
      "constant": false,
      "inputs": [
        {
          "internalType": "uint256",
          "name": "_upc",
          "type": "uint256"
        }
      ],
      "name": "sendForEditing",
      "outputs": [
        {
          "internalType": "string",
          "name": "",
          "type": "string"
        }
      ],
      "payable": false,
      "stateMutability": "nonpayable",
      "type": "function"
    },
    {
      "constant": false,
      "inputs": [
        {
          "internalType": "uint256",
          "name": "_upc",
          "type": "uint256"
        }
      ],
      "name": "editBook",
      "outputs": [],
      "payable": false,
      "stateMutability": "nonpayable",
      "type": "function"
    },
    {
      "constant": false,
      "inputs": [
        {
          "internalType": "uint256",
          "name": "_upc",
          "type": "uint256"
        }
      ],
      "name": "finishFinalDraft",
      "outputs": [],
      "payable": false,
      "stateMutability": "nonpayable",
      "type": "function"
    },
    {
      "constant": false,
      "inputs": [
        {
          "internalType": "uint256",
          "name": "_upc",
          "type": "uint256"
        }
      ],
      "name": "sendForDesign",
      "outputs": [],
      "payable": false,
      "stateMutability": "nonpayable",
      "type": "function"
    },
    {
      "constant": false,
      "inputs": [
        {
          "internalType": "uint256",
          "name": "_upc",
          "type": "uint256"
        }
      ],
      "name": "designBook",
      "outputs": [],
      "payable": false,
      "stateMutability": "nonpayable",
      "type": "function"
    },
    {
      "constant": false,
      "inputs": [
        {
          "internalType": "uint256",
          "name": "_upc",
          "type": "uint256"
        },
        {
          "internalType": "uint256",
          "name": "_price",
          "type": "uint256"
        }
      ],
      "name": "publishBook",
      "outputs": [],
      "payable": false,
      "stateMutability": "nonpayable",
      "type": "function"
    },
    {
      "constant": false,
      "inputs": [
        {
          "internalType": "uint256",
          "name": "_upc",
          "type": "uint256"
        }
      ],
      "name": "advertiseBook",
      "outputs": [],
      "payable": false,
      "stateMutability": "nonpayable",
      "type": "function"
    },
    {
      "constant": false,
      "inputs": [
        {
          "internalType": "uint256",
          "name": "_upc",
          "type": "uint256"
        }
      ],
      "name": "buyBook",
      "outputs": [],
      "payable": true,
      "stateMutability": "payable",
      "type": "function"
    },
    {
      "constant": true,
      "inputs": [
        {
          "internalType": "uint256",
          "name": "_upc",
          "type": "uint256"
        }
      ],
      "name": "fetchItemBufferOne",
      "outputs": [
        {
          "internalType": "uint256",
          "name": "itemSKU",
          "type": "uint256"
        },
        {
          "internalType": "uint256",
          "name": "itemUPC",
          "type": "uint256"
        },
        {
          "internalType": "address",
          "name": "ownerID",
          "type": "address"
        },
        {
          "internalType": "address",
          "name": "originAuthorID",
          "type": "address"
        },
        {
          "internalType": "string",
          "name": "originAuthorName",
          "type": "string"
        },
        {
          "internalType": "string",
          "name": "originAuthorInformation",
          "type": "string"
        }
      ],
      "payable": false,
      "stateMutability": "view",
      "type": "function"
    },
    {
      "constant": true,
      "inputs": [
        {
          "internalType": "uint256",
          "name": "_upc",
          "type": "uint256"
        }
      ],
      "name": "fetchItemBufferTwo",
      "outputs": [
        {
          "internalType": "uint256",
          "name": "itemSKU",
          "type": "uint256"
        },
        {
          "internalType": "uint256",
          "name": "itemUPC",
          "type": "uint256"
        },
        {
          "internalType": "uint256",
          "name": "productID",
          "type": "uint256"
        },
        {
          "internalType": "string",
          "name": "productNotes",
          "type": "string"
        },
        {
          "internalType": "uint256",
          "name": "productPrice",
          "type": "uint256"
        },
        {
          "internalType": "uint256",
          "name": "itemState",
          "type": "uint256"
        },
        {
          "internalType": "address",
          "name": "editorID",
          "type": "address"
        },
        {
          "internalType": "address",
          "name": "designerID",
          "type": "address"
        },
        {
          "internalType": "address",
          "name": "consumerID",
          "type": "address"
        }
      ],
      "payable": false,
      "stateMutability": "view",
      "type": "function"
    }
  ],
  "bytecode": "0x6080604052336000806101000a81548173ffffffffffffffffffffffffffffffffffffffff021916908373ffffffffffffffffffffffffffffffffffffffff1602179055506000809054906101000a900473ffffffffffffffffffffffffffffffffffffffff1673ffffffffffffffffffffffffffffffffffffffff16600073ffffffffffffffffffffffffffffffffffffffff167f5c486528ec3e3f0ea91181cff8116f02bfa350e03b8b6f12e00765adbb5af85c60405160405180910390a3620000d1336200015b60201b60201c565b620000e233620001bc60201b60201c565b620000f3336200021d60201b60201c565b62000104336200027e60201b60201c565b33600560006101000a81548173ffffffffffffffffffffffffffffffffffffffff021916908373ffffffffffffffffffffffffffffffffffffffff1602179055506001600781905550600160068190555062000428565b62000176816001620002df60201b620027f61790919060201c565b8073ffffffffffffffffffffffffffffffffffffffff167fa54c216efea01b095e2d9a04ed954effb291e3b605b3e188eef0cf5907b86d6060405160405180910390a250565b620001d7816002620002df60201b620027f61790919060201c565b8073ffffffffffffffffffffffffffffffffffffffff167f2973ec437ba0a6207102c44c409e03815ee1cc4624578ad40d3e4c50f978559160405160405180910390a250565b62000238816003620002df60201b620027f61790919060201c565b8073ffffffffffffffffffffffffffffffffffffffff167f97069a05372df648feb174cc125711b2c72a81450a1ab2769c8faf49917d7fd260405160405180910390a250565b62000299816004620002df60201b620027f61790919060201c565b8073ffffffffffffffffffffffffffffffffffffffff167f28b26e7a3d20aedbc5f8f2ebf7da671c0491723a2b78f47a097b0e46dee0714260405160405180910390a250565b600073ffffffffffffffffffffffffffffffffffffffff168173ffffffffffffffffffffffffffffffffffffffff1614156200031a57600080fd5b6200032c82826200039560201b60201c565b156200033757600080fd5b60018260000160008373ffffffffffffffffffffffffffffffffffffffff1673ffffffffffffffffffffffffffffffffffffffff16815260200190815260200160002060006101000a81548160ff0219169083151502179055505050565b60008073ffffffffffffffffffffffffffffffffffffffff168273ffffffffffffffffffffffffffffffffffffffff161415620003d157600080fd5b8260000160008373ffffffffffffffffffffffffffffffffffffffff1673ffffffffffffffffffffffffffffffffffffffff16815260200190815260200160002060009054906101000a900460ff16905092915050565b612a2780620004386000396000f3fe6080604052600436106101b75760003560e01c80637aa0bd86116100ec578063a5f563881161008a578063c8efcf5d11610064578063c8efcf5d14610c27578063d4b1253014610c6c578063e5975bdc14610cd5578063f2fde38b14610d26576101b7565b8063a5f5638814610975578063b5b98cf714610b95578063b635d70a14610bd0576101b7565b80638f32d59b116100c65780638f32d59b1461085d578063a01b86d01461088c578063a0748154146108a3578063a4f03e231461090c576101b7565b80637aa0bd86146107a2578063834ff739146107dd57806386efab0b14610846576101b7565b80635d3c2c311161015957806366225ff91161013357806366225ff9146104595780636ee26566146105c9578063715018a6146105f757806377c459131461060e576101b7565b80635d3c2c31146103535780635ec107f31461040757806361e6982d14610442576101b7565b80632cd661ae116101955780632cd661ae146102755780632ddbc97e146102b057806341c0e1b5146103015780634e6dda6814610318576101b7565b8063112940f9146101bc5780631b5ea45a1461020d5780631fbe98b11461025e575b600080fd5b3480156101c857600080fd5b5061020b600480360360208110156101df57600080fd5b81019080803573ffffffffffffffffffffffffffffffffffffffff169060200190929190505050610d77565b005b34801561021957600080fd5b5061025c6004803603602081101561023057600080fd5b81019080803573ffffffffffffffffffffffffffffffffffffffff169060200190929190505050610d95565b005b34801561026a57600080fd5b50610273610db3565b005b34801561028157600080fd5b506102ae6004803603602081101561029857600080fd5b8101908080359060200190929190505050610dbe565b005b3480156102bc57600080fd5b506102ff600480360360208110156102d357600080fd5b81019080803573ffffffffffffffffffffffffffffffffffffffff169060200190929190505050610efa565b005b34801561030d57600080fd5b50610316610f18565b005b34801561032457600080fd5b506103516004803603602081101561033b57600080fd5b8101908080359060200190929190505050610fab565b005b34801561035f57600080fd5b5061038c6004803603602081101561037657600080fd5b81019080803590602001909291905050506110e7565b6040518080602001828103825283818151815260200191508051906020019080838360005b838110156103cc5780820151818401526020810190506103b1565b50505050905090810190601f1680156103f95780820380516001836020036101000a031916815260200191505b509250505060405180910390f35b34801561041357600080fd5b506104406004803603602081101561042a57600080fd5b81019080803590602001909291905050506112d8565b005b34801561044e57600080fd5b50610457611414565b005b34801561046557600080fd5b506104926004803603602081101561047c57600080fd5b810190808035906020019092919050505061141f565b604051808a8152602001898152602001888152602001806020018781526020018681526020018573ffffffffffffffffffffffffffffffffffffffff1673ffffffffffffffffffffffffffffffffffffffff1681526020018473ffffffffffffffffffffffffffffffffffffffff1673ffffffffffffffffffffffffffffffffffffffff1681526020018373ffffffffffffffffffffffffffffffffffffffff1673ffffffffffffffffffffffffffffffffffffffff168152602001828103825288818151815260200191508051906020019080838360005b8381101561058657808201518184015260208101905061056b565b50505050905090810190601f1680156105b35780820380516001836020036101000a031916815260200191505b509a505050505050505050505060405180910390f35b6105f5600480360360208110156105df57600080fd5b8101908080359060200190929190505050611647565b005b34801561060357600080fd5b5061060c611917565b005b34801561061a57600080fd5b506106476004803603602081101561063157600080fd5b8101908080359060200190929190505050611a30565b604051808781526020018681526020018573ffffffffffffffffffffffffffffffffffffffff1673ffffffffffffffffffffffffffffffffffffffff1681526020018473ffffffffffffffffffffffffffffffffffffffff1673ffffffffffffffffffffffffffffffffffffffff1681526020018060200180602001838103835285818151815260200191508051906020019080838360005b838110156106fb5780820151818401526020810190506106e0565b50505050905090810190601f1680156107285780820380516001836020036101000a031916815260200191505b50838103825284818151815260200191508051906020019080838360005b83811015610761578082015181840152602081019050610746565b50505050905090810190601f16801561078e5780820380516001836020036101000a031916815260200191505b509850505050505050505060405180910390f35b3480156107ae57600080fd5b506107db600480360360208110156107c557600080fd5b8101908080359060200190929190505050611c5a565b005b3480156107e957600080fd5b5061082c6004803603602081101561080057600080fd5b81019080803573ffffffffffffffffffffffffffffffffffffffff169060200190929190505050611d7b565b604051808215151515815260200191505060405180910390f35b34801561085257600080fd5b5061085b611d98565b005b34801561086957600080fd5b50610872611da3565b604051808215151515815260200191505060405180910390f35b34801561089857600080fd5b506108a1611dfa565b005b3480156108af57600080fd5b506108f2600480360360208110156108c657600080fd5b81019080803573ffffffffffffffffffffffffffffffffffffffff169060200190929190505050611e05565b604051808215151515815260200191505060405180910390f35b34801561091857600080fd5b5061095b6004803603602081101561092f57600080fd5b81019080803573ffffffffffffffffffffffffffffffffffffffff169060200190929190505050611e22565b604051808215151515815260200191505060405180910390f35b34801561098157600080fd5b50610b93600480360360a081101561099857600080fd5b8101908080359060200190929190803573ffffffffffffffffffffffffffffffffffffffff169060200190929190803590602001906401000000008111156109df57600080fd5b8201836020820111156109f157600080fd5b80359060200191846001830284011164010000000083111715610a1357600080fd5b91908080601f016020809104026020016040519081016040528093929190818152602001838380828437600081840152601f19601f82011690508083019250505050505050919291929080359060200190640100000000811115610a7657600080fd5b820183602082011115610a8857600080fd5b80359060200191846001830284011164010000000083111715610aaa57600080fd5b91908080601f016020809104026020016040519081016040528093929190818152602001838380828437600081840152601f19601f82011690508083019250505050505050919291929080359060200190640100000000811115610b0d57600080fd5b820183602082011115610b1f57600080fd5b80359060200191846001830284011164010000000083111715610b4157600080fd5b91908080601f016020809104026020016040519081016040528093929190818152602001838380828437600081840152601f19601f820116905080830192505050505050509192919290505050611e3f565b005b348015610ba157600080fd5b50610bce60048036036020811015610bb857600080fd5b8101908080359060200190929190505050612059565b005b348015610bdc57600080fd5b50610be561217a565b604051808273ffffffffffffffffffffffffffffffffffffffff1673ffffffffffffffffffffffffffffffffffffffff16815260200191505060405180910390f35b348015610c3357600080fd5b50610c6a60048036036040811015610c4a57600080fd5b8101908080359060200190929190803590602001909291905050506121a3565b005b348015610c7857600080fd5b50610cbb60048036036020811015610c8f57600080fd5b81019080803573ffffffffffffffffffffffffffffffffffffffff1690602001909291905050506122fb565b604051808215151515815260200191505060405180910390f35b348015610ce157600080fd5b50610d2460048036036020811015610cf857600080fd5b81019080803573ffffffffffffffffffffffffffffffffffffffff169060200190929190505050612318565b005b348015610d3257600080fd5b50610d7560048036036020811015610d4957600080fd5b81019080803573ffffffffffffffffffffffffffffffffffffffff169060200190929190505050612336565b005b610d8033611d7b565b610d8957600080fd5b610d928161239c565b50565b610d9e33611e22565b610da757600080fd5b610db0816123f6565b50565b610dbc33612450565b565b8060026008811115610dcc57fe5b6008600083815260200190815260200160002060090160009054906101000a900460ff166008811115610dfb57fe5b14610e0557600080fd5b6008600083815260200190815260200160002060020160009054906101000a900473ffffffffffffffffffffffffffffffffffffffff168073ffffffffffffffffffffffffffffffffffffffff163373ffffffffffffffffffffffffffffffffffffffff1614610e7457600080fd5b610e7d336122fb565b610e8657600080fd5b60036008600085815260200190815260200160002060090160006101000a81548160ff02191690836008811115610eb957fe5b02179055507fa4cb3fb42aca4bcf13cc3a82536902f8cdff8fc9b7071ba0661406c46413ee42836040518082815260200191505060405180910390a1505050565b610f03336122fb565b610f0c57600080fd5b610f15816124aa565b50565b600560009054906101000a900473ffffffffffffffffffffffffffffffffffffffff1673ffffffffffffffffffffffffffffffffffffffff163373ffffffffffffffffffffffffffffffffffffffff161415610fa957600560009054906101000a900473ffffffffffffffffffffffffffffffffffffffff1673ffffffffffffffffffffffffffffffffffffffff16ff5b565b8060036008811115610fb957fe5b6008600083815260200190815260200160002060090160009054906101000a900460ff166008811115610fe857fe5b14610ff257600080fd5b6008600083815260200190815260200160002060020160009054906101000a900473ffffffffffffffffffffffffffffffffffffffff168073ffffffffffffffffffffffffffffffffffffffff163373ffffffffffffffffffffffffffffffffffffffff161461106157600080fd5b61106a336122fb565b61107357600080fd5b60046008600085815260200190815260200160002060090160006101000a81548160ff021916908360088111156110a657fe5b02179055507fbf39c43c95c793c84d77ac9eaee8ac15a1cd14a6eb4816750f643f8a04afacf4836040518082815260200191505060405180910390a1505050565b606081600060088111156110f757fe5b6008600083815260200190815260200160002060090160009054906101000a900460ff16600881111561112657fe5b1461113057600080fd5b6008600084815260200190815260200160002060030160009054906101000a900473ffffffffffffffffffffffffffffffffffffffff168073ffffffffffffffffffffffffffffffffffffffff163373ffffffffffffffffffffffffffffffffffffffff161461119f57600080fd5b6111a8336122fb565b6111b157600080fd5b60016008600086815260200190815260200160002060090160006101000a81548160ff021916908360088111156111e457fe5b02179055507f473b466067e224b2289ac833f119030754785f7ba0c6c4eb9baf54e607e45b12846040518082815260200191505060405180910390a1600860008581526020019081526020016000206007018054600181600116156101000203166002900480601f0160208091040260200160405190810160405280929190818152602001828054600181600116156101000203166002900480156112ca5780601f1061129f576101008083540402835291602001916112ca565b820191906000526020600020905b8154815290600101906020018083116112ad57829003601f168201915b505050505092505050919050565b80600660088111156112e657fe5b6008600083815260200190815260200160002060090160009054906101000a900460ff16600881111561131557fe5b1461131f57600080fd5b6008600083815260200190815260200160002060020160009054906101000a900473ffffffffffffffffffffffffffffffffffffffff168073ffffffffffffffffffffffffffffffffffffffff163373ffffffffffffffffffffffffffffffffffffffff161461138e57600080fd5b611397336122fb565b6113a057600080fd5b60076008600085815260200190815260200160002060090160006101000a81548160ff021916908360088111156113d357fe5b02179055507f26aeaf6aa11656fd0fe35f8f689c6755044c86f4727f1f77785c515cdab7994c836040518082815260200191505060405180910390a1505050565b61141d33612504565b565b600080600060606000806000806000600860008b8152602001908152602001600020600001549850600860008b8152602001908152602001600020600101549750600860008b8152602001908152602001600020600601549650600860008b81526020019081526020016000206007018054600181600116156101000203166002900480601f0160208091040260200160405190810160405280929190818152602001828054600181600116156101000203166002900480156115235780601f106114f857610100808354040283529160200191611523565b820191906000526020600020905b81548152906001019060200180831161150657829003601f168201915b50505050509550600860008b8152602001908152602001600020600801549450600860008b815260200190815260200160002060090160009054906101000a900460ff16600881111561157257fe5b9350600860008b815260200190815260200160002060090160019054906101000a900473ffffffffffffffffffffffffffffffffffffffff169250600860008b8152602001908152602001600020600a0160009054906101000a900473ffffffffffffffffffffffffffffffffffffffff169150600860008b8152602001908152602001600020600b0160009054906101000a900473ffffffffffffffffffffffffffffffffffffffff1690508888888888888888889850985098509850985098509850985098509193959799909294969850565b806007600881111561165557fe5b6008600083815260200190815260200160002060090160009054906101000a900460ff16600881111561168457fe5b1461168e57600080fd5b6008600083815260200190815260200160002060080154803410156116b257600080fd5b826116bc33611d7b565b6116c557600080fd5b600880600086815260200190815260200160002060090160006101000a81548160ff021916908360088111156116f757fe5b0217905550336008600086815260200190815260200160002060020160006101000a81548173ffffffffffffffffffffffffffffffffffffffff021916908373ffffffffffffffffffffffffffffffffffffffff1602179055503360086000868152602001908152602001600020600b0160006101000a81548173ffffffffffffffffffffffffffffffffffffffff021916908373ffffffffffffffffffffffffffffffffffffffff1602179055506008600085815260200190815260200160002060030160009054906101000a900473ffffffffffffffffffffffffffffffffffffffff1673ffffffffffffffffffffffffffffffffffffffff166108fc60086000878152602001908152602001600020600801549081150290604051600060405180830381858888f19350505050158015611838573d6000803e3d6000fd5b507f653d56639fee6b566a5c804764e9689de38645f0b733df89a36a1b7b42173dd8846040518082815260200191505060405180910390a16000600860008381526020019081526020016000206008015490506000813403905060086000848152602001908152602001600020600b0160009054906101000a900473ffffffffffffffffffffffffffffffffffffffff1673ffffffffffffffffffffffffffffffffffffffff166108fc829081150290604051600060405180830381858888f1935050505015801561190e573d6000803e3d6000fd5b50505050505050565b600560009054906101000a900473ffffffffffffffffffffffffffffffffffffffff1673ffffffffffffffffffffffffffffffffffffffff163373ffffffffffffffffffffffffffffffffffffffff161461197157600080fd5b600073ffffffffffffffffffffffffffffffffffffffff166000809054906101000a900473ffffffffffffffffffffffffffffffffffffffff1673ffffffffffffffffffffffffffffffffffffffff167f5c486528ec3e3f0ea91181cff8116f02bfa350e03b8b6f12e00765adbb5af85c60405160405180910390a360008060006101000a81548173ffffffffffffffffffffffffffffffffffffffff021916908373ffffffffffffffffffffffffffffffffffffffff160217905550565b60008060008060608060086000888152602001908152602001600020600001549550600860008881526020019081526020016000206001015494506008600088815260200190815260200160002060020160009054906101000a900473ffffffffffffffffffffffffffffffffffffffff1693506008600088815260200190815260200160002060030160009054906101000a900473ffffffffffffffffffffffffffffffffffffffff169250600860008881526020019081526020016000206004018054600181600116156101000203166002900480601f016020809104026020016040519081016040528092919081815260200182805460018160011615610100020316600290048015611b875780601f10611b5c57610100808354040283529160200191611b87565b820191906000526020600020905b815481529060010190602001808311611b6a57829003601f168201915b50505050509150600860008881526020019081526020016000206005018054600181600116156101000203166002900480601f016020809104026020016040519081016040528092919081815260200182805460018160011615610100020316600290048015611c385780601f10611c0d57610100808354040283529160200191611c38565b820191906000526020600020905b815481529060010190602001808311611c1b57829003601f168201915b5050505050905085858585858595509550955095509550955091939550919395565b8060046008811115611c6857fe5b6008600083815260200190815260200160002060090160009054906101000a900460ff166008811115611c9757fe5b14611ca157600080fd5b611caa33611e22565b611cb357600080fd5b60056008600084815260200190815260200160002060090160006101000a81548160ff02191690836008811115611ce657fe5b02179055503360086000848152602001908152602001600020600a0160006101000a81548173ffffffffffffffffffffffffffffffffffffffff021916908373ffffffffffffffffffffffffffffffffffffffff1602179055507f9f12fc7c5096077901b83d93a9ed1b966ef4ef29b125afb7f9260d15a811a82e826040518082815260200191505060405180910390a15050565b6000611d9182600461255e90919063ffffffff16565b9050919050565b611da1336125f0565b565b60008060009054906101000a900473ffffffffffffffffffffffffffffffffffffffff1673ffffffffffffffffffffffffffffffffffffffff163373ffffffffffffffffffffffffffffffffffffffff1614905090565b611e033361264a565b565b6000611e1b82600261255e90919063ffffffff16565b9050919050565b6000611e3882600361255e90919063ffffffff16565b9050919050565b611e48336122fb565b611e5157600080fd5b60075460086000878152602001908152602001600020600001819055506006546008600087815260200190815260200160002060010181905550836008600087815260200190815260200160002060020160006101000a81548173ffffffffffffffffffffffffffffffffffffffff021916908373ffffffffffffffffffffffffffffffffffffffff160217905550836008600087815260200190815260200160002060030160006101000a81548173ffffffffffffffffffffffffffffffffffffffff021916908373ffffffffffffffffffffffffffffffffffffffff16021790555082600860008781526020019081526020016000206004019080519060200190611f5f92919061294d565b5081600860008781526020019081526020016000206005019080519060200190611f8a92919061294d565b5060075460065401600860008781526020019081526020016000206006018190555080600860008781526020019081526020016000206007019080519060200190611fd692919061294d565b5060006008600087815260200190815260200160002060090160006101000a81548160ff0219169083600881111561200a57fe5b02179055506001600754016007819055507fbba19da8d116838213738bba933a0b950d375f39821adab661418376b93ac149856040518082815260200191505060405180910390a15050505050565b806001600881111561206757fe5b6008600083815260200190815260200160002060090160009054906101000a900460ff16600881111561209657fe5b146120a057600080fd5b6120a933611e05565b6120b257600080fd5b60026008600084815260200190815260200160002060090160006101000a81548160ff021916908360088111156120e557fe5b0217905550336008600084815260200190815260200160002060090160016101000a81548173ffffffffffffffffffffffffffffffffffffffff021916908373ffffffffffffffffffffffffffffffffffffffff1602179055507f0fd28664df0e84ad83c0dcbd382d4fd80d870562b74c1b37a1f3e6fe6ce4862c826040518082815260200191505060405180910390a15050565b60008060009054906101000a900473ffffffffffffffffffffffffffffffffffffffff16905090565b81600560088111156121b157fe5b6008600083815260200190815260200160002060090160009054906101000a900460ff1660088111156121e057fe5b146121ea57600080fd5b6008600084815260200190815260200160002060020160009054906101000a900473ffffffffffffffffffffffffffffffffffffffff168073ffffffffffffffffffffffffffffffffffffffff163373ffffffffffffffffffffffffffffffffffffffff161461225957600080fd5b612262336122fb565b61226b57600080fd5b60066008600086815260200190815260200160002060090160006101000a81548160ff0219169083600881111561229e57fe5b02179055508260086000868152602001908152602001600020600801819055507f376bc3664e237a897179c3c1ddc5b8ef6318ad79c1b7819a305b0e23263f868d846040518082815260200191505060405180910390a150505050565b600061231182600161255e90919063ffffffff16565b9050919050565b61232133611e05565b61232a57600080fd5b612333816126a4565b50565b600560009054906101000a900473ffffffffffffffffffffffffffffffffffffffff1673ffffffffffffffffffffffffffffffffffffffff163373ffffffffffffffffffffffffffffffffffffffff161461239057600080fd5b612399816126fe565b50565b6123b08160046127f690919063ffffffff16565b8073ffffffffffffffffffffffffffffffffffffffff167f28b26e7a3d20aedbc5f8f2ebf7da671c0491723a2b78f47a097b0e46dee0714260405160405180910390a250565b61240a8160036127f690919063ffffffff16565b8073ffffffffffffffffffffffffffffffffffffffff167f97069a05372df648feb174cc125711b2c72a81450a1ab2769c8faf49917d7fd260405160405180910390a250565b6124648160036128a290919063ffffffff16565b8073ffffffffffffffffffffffffffffffffffffffff167fe16181bbb8b138f88a23696ae25f2c63713913e3fc6922b234a08639bf53cbea60405160405180910390a250565b6124be8160016127f690919063ffffffff16565b8073ffffffffffffffffffffffffffffffffffffffff167fa54c216efea01b095e2d9a04ed954effb291e3b605b3e188eef0cf5907b86d6060405160405180910390a250565b6125188160046128a290919063ffffffff16565b8073ffffffffffffffffffffffffffffffffffffffff167fe3f5ed5f263f1f01764a96edfc7d025f511ec5f7d180e8816908b78bcf74f09860405160405180910390a250565b60008073ffffffffffffffffffffffffffffffffffffffff168273ffffffffffffffffffffffffffffffffffffffff16141561259957600080fd5b8260000160008373ffffffffffffffffffffffffffffffffffffffff1673ffffffffffffffffffffffffffffffffffffffff16815260200190815260200160002060009054906101000a900460ff16905092915050565b6126048160016128a290919063ffffffff16565b8073ffffffffffffffffffffffffffffffffffffffff167fbc182e43b738ad813e1ece3ed212d35a05cddd04477b4a53b5dd5fc95857f3d760405160405180910390a250565b61265e8160026128a290919063ffffffff16565b8073ffffffffffffffffffffffffffffffffffffffff167f9ebabfcf7586bd9e26cef64918d755359eb8b878650b23b77105b0963082e34860405160405180910390a250565b6126b88160026127f690919063ffffffff16565b8073ffffffffffffffffffffffffffffffffffffffff167f2973ec437ba0a6207102c44c409e03815ee1cc4624578ad40d3e4c50f978559160405160405180910390a250565b600073ffffffffffffffffffffffffffffffffffffffff168173ffffffffffffffffffffffffffffffffffffffff16141561273857600080fd5b8073ffffffffffffffffffffffffffffffffffffffff166000809054906101000a900473ffffffffffffffffffffffffffffffffffffffff1673ffffffffffffffffffffffffffffffffffffffff167f5c486528ec3e3f0ea91181cff8116f02bfa350e03b8b6f12e00765adbb5af85c60405160405180910390a3806000806101000a81548173ffffffffffffffffffffffffffffffffffffffff021916908373ffffffffffffffffffffffffffffffffffffffff16021790555050565b600073ffffffffffffffffffffffffffffffffffffffff168173ffffffffffffffffffffffffffffffffffffffff16141561283057600080fd5b61283a828261255e565b1561284457600080fd5b60018260000160008373ffffffffffffffffffffffffffffffffffffffff1673ffffffffffffffffffffffffffffffffffffffff16815260200190815260200160002060006101000a81548160ff0219169083151502179055505050565b600073ffffffffffffffffffffffffffffffffffffffff168173ffffffffffffffffffffffffffffffffffffffff1614156128dc57600080fd5b6128e6828261255e565b6128ef57600080fd5b60008260000160008373ffffffffffffffffffffffffffffffffffffffff1673ffffffffffffffffffffffffffffffffffffffff16815260200190815260200160002060006101000a81548160ff0219169083151502179055505050565b828054600181600116156101000203166002900490600052602060002090601f016020900481019282601f1061298e57805160ff19168380011785556129bc565b828001600101855582156129bc579182015b828111156129bb5782518255916020019190600101906129a0565b5b5090506129c991906129cd565b5090565b6129ef91905b808211156129eb5760008160009055506001016129d3565b5090565b9056fea265627a7a72315820de7c7b5e871311df01cadd400f75eaec29d98d043b5d511a3227aa545b3e3da764736f6c63430005100032",
  "source": "pragma solidity >=0.4.24;\r\n\r\nimport '../bookcore/Ownable.sol';\r\nimport '../bookaccesscontrol/AuthorRole.sol';\r\nimport '../bookaccesscontrol/EditorRole.sol';\r\nimport '../bookaccesscontrol/DesignerRole.sol';\r\nimport '../bookaccesscontrol/ConsumerRole.sol';\r\n\r\n// Define a contract 'SupplyChain'\r\ncontract SupplyChain is Ownable, AuthorRole, EditorRole, DesignerRole, ConsumerRole {\r\n\r\n    // Define 'owner'\r\n    address payable owner;\r\n\r\n    // Define a variable called 'upc' for Universal Product Code (UPC)\r\n    uint  upc;\r\n\r\n    // Define a variable called 'sku' for Stock Keeping Unit (SKU)\r\n    uint  sku;\r\n\r\n    // Define a public mapping 'items' that maps the UPC to an Item.\r\n    mapping (uint => Item) items;\r\n\r\n    // Define a public mapping 'itemsHistory' that maps the UPC to an array of TxHash,\r\n    // that track its journey through the supply chain -- to be sent from DApp.\r\n    mapping (uint => string[]) itemsHistory;\r\n\r\n    // Define enum 'State' with the following values:\r\n    enum State\r\n    {\r\n        Written,               // 0\r\n        SentForEditing,        // 1\r\n        Edited,                // 2\r\n        FinalDraft,            // 3\r\n        SentForDesign,         // 4\r\n        Designed,              // 5\r\n        Published,             // 6\r\n        Advertised,            // 7\r\n        Purchased              // 8\r\n    }\r\n\r\n    State constant defaultState = State.Written;\r\n\r\n    // Define a struct 'Item' with the following fields:\r\n    struct Item {\r\n        uint    sku;  // Stock Keeping Unit (SKU)\r\n        uint    upc; // Universal Product Code (UPC), generated by the Author, goes on the package, can be verified by the Consumer\r\n        address ownerID;  // Metamask-Ethereum address of the current owner as the product moves through 9 stages\r\n        address payable originAuthorID; // Metamask-Ethereum address of the Author\r\n        string  originAuthorName; // Author Name\r\n        string  originAuthorInformation;  // Author Information\r\n        uint    productID;  // Product ID potentially a combination of upc + sku\r\n        string  productNotes; // Product Notes\r\n        uint    productPrice; // Product Price\r\n        State   itemState;  // Product State as represented in the enum above\r\n        address editorID;  // Metamask-Ethereum address of the Editor\r\n        address designerID;  // Metamask-Ethereum address of the Designer\r\n        address payable consumerID;  // Metamask-Ethereum address of the Consumer\r\n    }\r\n\r\n    // Define 9 events with the same 9 state values and accept 'upc' as input argument\r\n    event Written(uint upc);\r\n    event SentForEditing(uint upc);\r\n    event Edited(uint upc);\r\n    event FinalDraft(uint upc);\r\n    event SentForDesign(uint upc);\r\n    event Designed(uint upc);\r\n    event Published(uint upc);\r\n    event Advertised(uint upc);\r\n    event Purchased(uint upc);\r\n\r\n    // Define a modifer that checks to see if msg.sender == owner of the contract\r\n    modifier onlyOwner() {\r\n        require(msg.sender == owner);\r\n        _;\r\n    }\r\n\r\n    // Define a modifer that verifies the Caller\r\n    modifier verifyCaller (address _address) {\r\n        require(msg.sender == _address);\r\n        _;\r\n    }\r\n\r\n    // Define a modifier that checks if the paid amount is sufficient to cover the price\r\n    modifier paidEnough(uint _price) {\r\n        require(msg.value >= _price);\r\n        _;\r\n    }\r\n\r\n    // Define a modifier that checks the price and refunds the remaining balance\r\n    modifier checkValue(uint _upc) {\r\n        _;\r\n        uint _price = items[_upc].productPrice;\r\n        uint amountToReturn = msg.value - _price;\r\n        items[_upc].consumerID.transfer(amountToReturn);\r\n    }\r\n\r\n    // Define a modifier that checks if an item.state of a upc is Written\r\n    modifier written(uint _upc) {\r\n        require(items[_upc].itemState == State.Written);\r\n        _;\r\n    }\r\n\r\n    // Define a modifier that checks if an item.state of a upc is SentForEditing\r\n    modifier sentForEditing(uint _upc) {\r\n        require(items[_upc].itemState == State.SentForEditing);\r\n        _;\r\n    }\r\n\r\n    // Define a modifier that checks if an item.state of a upc is Edited\r\n    modifier edited(uint _upc) {\r\n        require(items[_upc].itemState == State.Edited);\r\n        _;\r\n    }\r\n\r\n    // Define a modifier that checks if an item.state of a upc is FinalDraft\r\n    modifier finalDraft(uint _upc) {\r\n        require(items[_upc].itemState == State.FinalDraft);\r\n        _;\r\n    }\r\n\r\n    // Define a modifier that checks if an item.state of a upc is SentForDesign\r\n    modifier sentForDesign(uint _upc) {\r\n        require(items[_upc].itemState == State.SentForDesign);\r\n        _;\r\n    }\r\n\r\n    // Define a modifier that checks if an item.state of a upc is Designed\r\n    modifier designed(uint _upc) {\r\n        require(items[_upc].itemState == State.Designed);\r\n        _;\r\n    }\r\n\r\n    // Define a modifier that checks if an item.state of a upc is Published\r\n    modifier published(uint _upc) {\r\n        require(items[_upc].itemState == State.Published);\r\n        _;\r\n    }\r\n\r\n    // Define a modifier that checks if an item.state of a upc is Advertised\r\n    modifier advertised(uint _upc) {\r\n        require(items[_upc].itemState == State.Advertised);\r\n        _;\r\n    }\r\n\r\n    // Define a modifier that checks if an item.state of a upc is Purchased\r\n    modifier purchased(uint _upc) {\r\n        require(items[_upc].itemState == State.Purchased);\r\n        _;\r\n    }\r\n\r\n    // In the constructor set 'owner' to the address that instantiated the contract\r\n    // and set 'sku' to 1\r\n    // and set 'upc' to 1\r\n    constructor() public payable {\r\n        owner = msg.sender;\r\n        sku = 1;\r\n        upc = 1;\r\n    }\r\n\r\n    // Define a function 'kill' if required\r\n    function kill() public {\r\n        if (msg.sender == owner) {\r\n            selfdestruct(owner);\r\n        }\r\n    }\r\n\r\n    // Define a function 'writeBook' that allows an author to mark an item 'Written'\r\n    function writeBook\r\n    (\r\n        uint _upc,\r\n        address payable _originAuthorID,\r\n        string  memory  _originAuthorName,\r\n        string  memory  _originAuthorInformation,\r\n        string  memory  _productNotes\r\n    )\r\n        public\r\n        onlyAuthor\r\n    {\r\n        // Add the new item as part of Written\r\n        items[_upc].sku = sku;\r\n        items[_upc].upc = upc;\r\n        items[_upc].ownerID = _originAuthorID;\r\n        items[_upc].originAuthorID = _originAuthorID;\r\n        items[_upc].originAuthorName = _originAuthorName;\r\n        items[_upc].originAuthorInformation = _originAuthorInformation;\r\n        items[_upc].productID = upc + sku;\r\n        items[_upc].productNotes = _productNotes;\r\n        items[_upc].itemState = State.Written;\r\n        // Increment sku\r\n        sku = sku + 1;\r\n        // Emit the appropriate event\r\n        emit Written(_upc);\r\n    }\r\n\r\n    // Define a function 'sendForEditing' that allows an author to mark an item 'SentForEditing'\r\n    function sendForEditing(uint _upc)\r\n        public\r\n        // Call modifier to check if upc has passed previous supply chain stage\r\n        written(_upc)\r\n        // Call modifier to verify caller of this function\r\n        verifyCaller(items[_upc].originAuthorID)\r\n        onlyAuthor\r\n        returns (string memory)\r\n    {\r\n        // Update the appropriate fields\r\n        items[_upc].itemState = State.SentForEditing;\r\n        // Emit the appropriate event\r\n        emit SentForEditing(_upc);\r\n        return items[_upc].productNotes;\r\n    }\r\n\r\n    // Define a function 'editBook' that allows an editor to mark an item 'Edited'\r\n    function editBook(uint _upc) public\r\n        // Call modifier to check if upc has passed previous supply chain stage\r\n        sentForEditing(_upc)\r\n        onlyEditor\r\n    {\r\n        // Update the appropriate fields\r\n        items[_upc].itemState = State.Edited;\r\n        items[_upc].editorID = msg.sender;\r\n        // Emit the appropriate event\r\n        emit Edited(_upc);\r\n    }\r\n\r\n    // Define a function 'finishFinalDraft' that allows an author to mark an item 'FinalDraft'\r\n    function finishFinalDraft(uint _upc) public\r\n        // Call modifier to check if upc has passed previous supply chain stage\r\n        edited(_upc)\r\n        // Verify caller identity\r\n        verifyCaller(items[_upc].ownerID)\r\n        onlyAuthor\r\n    {\r\n        // Update the appropriate fields\r\n        items[_upc].itemState = State.FinalDraft;\r\n        // Emit the appropriate event\r\n        emit FinalDraft(_upc);\r\n    }\r\n\r\n    // Define a function 'sendForDesign' that allows an author to mark an item 'SentForDesign'\r\n    function sendForDesign(uint _upc) public\r\n        // Call modifier to check if upc has passed previous supply chain stage\r\n        finalDraft(_upc)\r\n        // Verify caller identity\r\n        verifyCaller(items[_upc].ownerID)\r\n        onlyAuthor\r\n    {\r\n        // Update the appropriate fields\r\n        items[_upc].itemState = State.SentForDesign;\r\n        // Emit the appropriate event\r\n        emit SentForDesign(_upc);\r\n    }\r\n\r\n    // Define a function 'designBook' that allows a designer to mark an item 'Designed'\r\n    function designBook(uint _upc) public\r\n        // Call modifier to check if upc has passed previous supply chain stage\r\n        sentForDesign(_upc)\r\n        onlyDesigner\r\n    {\r\n        // Update the appropriate fields\r\n        items[_upc].itemState = State.Designed;\r\n        items[_upc].designerID = msg.sender;\r\n        // Emit the appropriate event\r\n        emit Designed(_upc);\r\n    }\r\n\r\n    // Define a function 'publishBook' that allows an author to mark an item 'Published'\r\n    function publishBook(uint _upc, uint _price) public\r\n        // Call modifier to check if upc has passed previous supply chain stage\r\n        designed(_upc)\r\n        // Verify caller identity\r\n        verifyCaller(items[_upc].ownerID)\r\n        onlyAuthor\r\n    {\r\n        // Update the appropriate fields\r\n        items[_upc].itemState = State.Published;\r\n        items[_upc].productPrice = _price;\r\n        // Emit the appropriate event\r\n        emit Published(_upc);\r\n    }\r\n\r\n    // Define a function 'advertiseBook' that allows a designer to mark an item 'Advertised'\r\n    function advertiseBook(uint _upc) public\r\n        // Call modifier to check if upc has passed previous supply chain stage\r\n        published(_upc)\r\n        // Verify caller identity\r\n        verifyCaller(items[_upc].ownerID)\r\n        onlyAuthor\r\n    {\r\n        // Update the appropriate fields\r\n        items[_upc].itemState = State.Advertised;\r\n        // Emit the appropriate event\r\n        emit Advertised(_upc);\r\n    }\r\n\r\n    // Define a function 'buyBook' that allows a consumer to mark an item 'Purchased'\r\n    // Use the above defined modifiers to check if the item is available for sale, if the buyer has paid enough,\r\n    // and any excess ether sent is refunded back to the buyer\r\n    function buyBook(uint _upc) public payable\r\n        // Call modifier to check if upc has passed previous supply chain stage\r\n        advertised(_upc)\r\n        paidEnough(items[_upc].productPrice)\r\n        // Call modifer to send any excess ether back to buyer\r\n        checkValue(_upc)\r\n        onlyConsumer\r\n    {\r\n        // Update the appropriate fields - ownerID, consumerID, itemState\r\n        items[_upc].itemState = State.Purchased;\r\n        items[_upc].ownerID = msg.sender;\r\n        items[_upc].consumerID = msg.sender;\r\n        // Transfer money to author\r\n        items[_upc].originAuthorID.transfer(items[_upc].productPrice);\r\n        // emit the appropriate event\r\n        emit Purchased(_upc);\r\n    }\r\n\r\n    // Define a function 'fetchItemBufferOne' that fetches the data\r\n    function fetchItemBufferOne(uint _upc) public view returns\r\n    (\r\n        uint    itemSKU,\r\n        uint    itemUPC,\r\n        address ownerID,\r\n        address originAuthorID,\r\n        string  memory originAuthorName,\r\n        string  memory originAuthorInformation\r\n    )\r\n    {\r\n        // Assign values to the 6 parameters\r\n        itemSKU = items[_upc].sku;\r\n        itemUPC = items[_upc].upc;\r\n        ownerID = items[_upc].ownerID;\r\n        originAuthorID = items[_upc].originAuthorID;\r\n        originAuthorName = items[_upc].originAuthorName;\r\n        originAuthorInformation = items[_upc].originAuthorInformation;\r\n\r\n        return\r\n        (\r\n            itemSKU,\r\n            itemUPC,\r\n            ownerID,\r\n            originAuthorID,\r\n            originAuthorName,\r\n            originAuthorInformation\r\n        );\r\n    }\r\n\r\n    // Define a function 'fetchItemBufferTwo' that fetches the data\r\n    function fetchItemBufferTwo(uint _upc) public view returns\r\n    (\r\n        uint    itemSKU,\r\n        uint    itemUPC,\r\n        uint    productID,\r\n        string  memory productNotes,\r\n        uint    productPrice,\r\n        uint    itemState,\r\n        address editorID,\r\n        address designerID,\r\n        address consumerID\r\n    )\r\n    {\r\n        // Assign values to the 9 parameters\r\n        itemSKU = items[_upc].sku;\r\n        itemUPC = items[_upc].upc;\r\n        productID = items[_upc].productID;\r\n        productNotes = items[_upc].productNotes;\r\n        productPrice = items[_upc].productPrice;\r\n        itemState = uint(items[_upc].itemState);\r\n        editorID = items[_upc].editorID;\r\n        designerID = items[_upc].designerID;\r\n        consumerID = items[_upc].consumerID;\r\n\r\n        return\r\n        (\r\n            itemSKU,\r\n            itemUPC,\r\n            productID,\r\n            productNotes,\r\n            productPrice,\r\n            itemState,\r\n            editorID,\r\n            designerID,\r\n            consumerID\r\n        );\r\n    }\r\n}\r\n",
  "sourcePath": "C:\\Users\\cathe\\Downloads\\Web Dev\\udacity_Project6_BookSupplyChain\\project-6\\contracts\\bookbase\\SupplyChain.sol",
  "compiler": {
    "name": "solc",
    "version": "0.5.16+commit.9c3226ce.Emscripten.clang"
  },
  "schemaVersion": "3.0.23",
  "updatedAt": "2020-04-16T23:14:30.790Z",
  "networkType": "ethereum",
  "devdoc": {
    "methods": {}
  },
  "userdoc": {
    "methods": {
      "isOwner()": {
        "notice": "Check if the calling address is the owner of the contract"
      },
      "renounceOwnership()": {
        "notice": "Define a function to renounce ownerhip"
      },
      "theOwner()": {
        "notice": "Look up the address of the owner"
      },
      "transferOwnership(address)": {
        "notice": "Define a public function to transfer ownership"
      }
    }
  }
}